{"abi":[{"type":"constructor","inputs":[{"name":"priceFeed","type":"address","internalType":"address"}],"stateMutability":"nonpayable"},{"type":"fallback","stateMutability":"payable"},{"type":"receive","stateMutability":"payable"},{"type":"function","name":"MINIMUM_USD","inputs":[],"outputs":[{"name":"","type":"uint256","internalType":"uint256"}],"stateMutability":"view"},{"type":"function","name":"fund","inputs":[],"outputs":[],"stateMutability":"payable"},{"type":"function","name":"getAddressToAmountFunded","inputs":[{"name":"fundingAddress","type":"address","internalType":"address"}],"outputs":[{"name":"","type":"uint256","internalType":"uint256"}],"stateMutability":"view"},{"type":"function","name":"getFunder","inputs":[{"name":"index","type":"uint256","internalType":"uint256"}],"outputs":[{"name":"","type":"address","internalType":"address"}],"stateMutability":"view"},{"type":"function","name":"getOwner","inputs":[],"outputs":[{"name":"","type":"address","internalType":"address"}],"stateMutability":"view"},{"type":"function","name":"getPriceFeed","inputs":[],"outputs":[{"name":"","type":"address","internalType":"contract AggregatorV3Interface"}],"stateMutability":"view"},{"type":"function","name":"getVersion","inputs":[],"outputs":[{"name":"","type":"uint256","internalType":"uint256"}],"stateMutability":"view"},{"type":"function","name":"i_owner","inputs":[],"outputs":[{"name":"","type":"address","internalType":"address"}],"stateMutability":"view"},{"type":"function","name":"s_funders","inputs":[{"name":"","type":"uint256","internalType":"uint256"}],"outputs":[{"name":"","type":"address","internalType":"address"}],"stateMutability":"view"},{"type":"function","name":"withdraw","inputs":[],"outputs":[],"stateMutability":"nonpayable"},{"type":"error","name":"FundMe__NotOwner","inputs":[]}],"bytecode":{"object":"0x608060405234801561001057600080fd5b5060405161085738038061085783398101604081905261002f91610062565b60028054336001600160a01b031991821617909155600380549091166001600160a01b0392909216919091179055610092565b60006020828403121561007457600080fd5b81516001600160a01b038116811461008b57600080fd5b9392505050565b6107b6806100a16000396000f3fe6080604052600436106100955760003560e01c8063893d20e811610059578063893d20e8146101735780639e87a5cd14610191578063b60d4288146100a4578063d7b4750c146101af578063dba6335f146101cf576100a4565b80630343fb25146100ac5780630d8e6e2c146100f55780633ccfd60b1461010a57806354861af71461011f5780636b69a59214610157576100a4565b366100a4576100a26101ef565b005b6100a26101ef565b3480156100b857600080fd5b506100e26100c73660046105f5565b6001600160a01b031660009081526020819052604090205490565b6040519081526020015b60405180910390f35b34801561010157600080fd5b506100e26102ca565b34801561011657600080fd5b506100a261033d565b34801561012b57600080fd5b5061013f61013a36600461061e565b610466565b6040516001600160a01b0390911681526020016100ec565b34801561016357600080fd5b506100e2674563918244f4000081565b34801561017f57600080fd5b506002546001600160a01b031661013f565b34801561019d57600080fd5b506003546001600160a01b031661013f565b3480156101bb57600080fd5b5061013f6101ca36600461061e565b610490565b3480156101db57600080fd5b5060025461013f906001600160a01b031681565b600354674563918244f40000906102109034906001600160a01b03166104c0565b10156102635760405162461bcd60e51b815260206004820152601b60248201527f596f75206e65656420746f207370656e64206d6f72652045544821000000000060448201526064015b60405180910390fd5b336000908152602081905260408120805434929061028290849061064d565b90915550506001805480820182556000919091527fb10e2d527612073b26eecdfd717e6a320cf44b4afac2b0732d9fcbe2b7fa0cf60180546001600160a01b03191633179055565b6003546040805163054fd4d560e41b815290516000926001600160a01b0316916354fd4d509160048083019260209291908290030181865afa158015610314573d6000803e3d6000fd5b505050506040513d601f19601f820116820180604052508101906103389190610660565b905090565b6002546001600160a01b031633146103685760405163579610db60e01b815260040160405180910390fd5b60005b6001548110156103be5760006001828154811061038a5761038a610679565b60009182526020808320909101546001600160a01b03168252819052604081205550806103b68161068f565b91505061036b565b5060408051600081526020810191829052516103dc9160019161057b565b50604051600090339047908381818185875af1925050503d806000811461041f576040519150601f19603f3d011682016040523d82523d6000602084013e610424565b606091505b50509050806104635760405162461bcd60e51b815260206004820152600b60248201526a10d85b1b0819985a5b195960aa1b604482015260640161025a565b50565b6001818154811061047657600080fd5b6000918252602090912001546001600160a01b0316905081565b6000600182815481106104a5576104a5610679565b6000918252602090912001546001600160a01b031692915050565b6000806104cc836104f8565b90506000670de0b6b3a76400006104e386846106a8565b6104ed91906106bf565b925050505b92915050565b600080826001600160a01b031663feaf968c6040518163ffffffff1660e01b815260040160a060405180830381865afa158015610539573d6000803e3d6000fd5b505050506040513d601f19601f8201168201806040525081019061055d9190610700565b505050915050806402540be4006105749190610750565b9392505050565b8280548282559060005260206000209081019282156105d0579160200282015b828111156105d057825182546001600160a01b0319166001600160a01b0390911617825560209092019160019091019061059b565b506105dc9291506105e0565b5090565b5b808211156105dc57600081556001016105e1565b60006020828403121561060757600080fd5b81356001600160a01b038116811461057457600080fd5b60006020828403121561063057600080fd5b5035919050565b634e487b7160e01b600052601160045260246000fd5b808201808211156104f2576104f2610637565b60006020828403121561067257600080fd5b5051919050565b634e487b7160e01b600052603260045260246000fd5b6000600182016106a1576106a1610637565b5060010190565b80820281158282048414176104f2576104f2610637565b6000826106dc57634e487b7160e01b600052601260045260246000fd5b500490565b805169ffffffffffffffffffff811681146106fb57600080fd5b919050565b600080600080600060a0868803121561071857600080fd5b610721866106e1565b9450602086015193506040860151925060608601519150610744608087016106e1565b90509295509295909350565b80820260008212600160ff1b8414161561076c5761076c610637565b81810583148215176104f2576104f261063756fea2646970667358221220c88bb712fa9830011ecc5e8c993ce7ed786038faaeadfc691590f2a6be7eb5f564736f6c63430008130033","linkReferences":{}},"methodIdentifiers":{"MINIMUM_USD()":"6b69a592","fund()":"b60d4288","getAddressToAmountFunded(address)":"0343fb25","getFunder(uint256)":"d7b4750c","getOwner()":"893d20e8","getPriceFeed()":"9e87a5cd","getVersion()":"0d8e6e2c","i_owner()":"dba6335f","s_funders(uint256)":"54861af7","withdraw()":"3ccfd60b"},"id":22}